{
  "_format": "hh-sol-artifact-1",
  "contractName": "Token",
  "sourceName": "contracts/Token.sol",
  "abi": [
    {
      "inputs": [],
      "stateMutability": "nonpayable",
      "type": "constructor"
    },
    {
      "inputs": [],
      "name": "Name",
      "outputs": [
        {
          "internalType": "string",
          "name": "",
          "type": "string"
        }
      ],
      "stateMutability": "view",
      "type": "function"
    },
    {
      "inputs": [
        {
          "internalType": "address",
          "name": "to",
          "type": "address"
        },
        {
          "internalType": "uint256",
          "name": "amount",
          "type": "uint256"
        }
      ],
      "name": "Transfer",
      "outputs": [],
      "stateMutability": "nonpayable",
      "type": "function"
    },
    {
      "inputs": [
        {
          "internalType": "address",
          "name": "account",
          "type": "address"
        }
      ],
      "name": "checkbalance",
      "outputs": [
        {
          "internalType": "uint256",
          "name": "",
          "type": "uint256"
        }
      ],
      "stateMutability": "view",
      "type": "function"
    },
    {
      "inputs": [],
      "name": "owner",
      "outputs": [
        {
          "internalType": "address",
          "name": "",
          "type": "address"
        }
      ],
      "stateMutability": "view",
      "type": "function"
    },
    {
      "inputs": [],
      "name": "symbol",
      "outputs": [
        {
          "internalType": "string",
          "name": "",
          "type": "string"
        }
      ],
      "stateMutability": "view",
      "type": "function"
    },
    {
      "inputs": [],
      "name": "totalSupply",
      "outputs": [
        {
          "internalType": "uint256",
          "name": "",
          "type": "uint256"
        }
      ],
      "stateMutability": "view",
      "type": "function"
    }
  ],
  "bytecode": "0x60806040526040518060400160405280600d81526020017f4861726468617420546f6b656e000000000000000000000000000000000000008152506000908051906020019061004f92919061013b565b506040518060400160405280600381526020017f48485400000000000000000000000000000000000000000000000000000000008152506001908051906020019061009b92919061013b565b506103e86002553480156100ae57600080fd5b50600254600460003373ffffffffffffffffffffffffffffffffffffffff1673ffffffffffffffffffffffffffffffffffffffff1681526020019081526020016000208190555033600360006101000a81548173ffffffffffffffffffffffffffffffffffffffff021916908373ffffffffffffffffffffffffffffffffffffffff16021790555061023f565b8280546101479061020d565b90600052602060002090601f01602090048101928261016957600085556101b0565b82601f1061018257805160ff19168380011785556101b0565b828001600101855582156101b0579182015b828111156101af578251825591602001919060010190610194565b5b5090506101bd91906101c1565b5090565b5b808211156101da5760008160009055506001016101c2565b5090565b7f4e487b7100000000000000000000000000000000000000000000000000000000600052602260045260246000fd5b6000600282049050600182168061022557607f821691505b60208210811415610239576102386101de565b5b50919050565b6107bf8061024e6000396000f3fe608060405234801561001057600080fd5b50600436106100625760003560e01c806318160ddd1461006757806369ca02dd146100855780638052474d146100a15780638da5cb5b146100bf57806395d89b41146100dd578063e83029bb146100fb575b600080fd5b61006f61012b565b60405161007c9190610407565b60405180910390f35b61009f600480360381019061009a91906104b1565b610131565b005b6100a9610263565b6040516100b6919061058a565b60405180910390f35b6100c76102f1565b6040516100d491906105bb565b60405180910390f35b6100e5610317565b6040516100f2919061058a565b60405180910390f35b610115600480360381019061011091906105d6565b6103a5565b6040516101229190610407565b60405180910390f35b60025481565b80600460003373ffffffffffffffffffffffffffffffffffffffff1673ffffffffffffffffffffffffffffffffffffffff1681526020019081526020016000205410156101b3576040517f08c379a00000000000000000000000000000000000000000000000000000000081526004016101aa9061064f565b60405180910390fd5b80600460003373ffffffffffffffffffffffffffffffffffffffff1673ffffffffffffffffffffffffffffffffffffffff1681526020019081526020016000206000828254610202919061069e565b9250508190555080600460008473ffffffffffffffffffffffffffffffffffffffff1673ffffffffffffffffffffffffffffffffffffffff168152602001908152602001600020600082825461025891906106d2565b925050819055505050565b6000805461027090610757565b80601f016020809104026020016040519081016040528092919081815260200182805461029c90610757565b80156102e95780601f106102be576101008083540402835291602001916102e9565b820191906000526020600020905b8154815290600101906020018083116102cc57829003601f168201915b505050505081565b600360009054906101000a900473ffffffffffffffffffffffffffffffffffffffff1681565b6001805461032490610757565b80601f016020809104026020016040519081016040528092919081815260200182805461035090610757565b801561039d5780601f106103725761010080835404028352916020019161039d565b820191906000526020600020905b81548152906001019060200180831161038057829003601f168201915b505050505081565b6000600460008373ffffffffffffffffffffffffffffffffffffffff1673ffffffffffffffffffffffffffffffffffffffff168152602001908152602001600020549050919050565b6000819050919050565b610401816103ee565b82525050565b600060208201905061041c60008301846103f8565b92915050565b600080fd5b600073ffffffffffffffffffffffffffffffffffffffff82169050919050565b600061045282610427565b9050919050565b61046281610447565b811461046d57600080fd5b50565b60008135905061047f81610459565b92915050565b61048e816103ee565b811461049957600080fd5b50565b6000813590506104ab81610485565b92915050565b600080604083850312156104c8576104c7610422565b5b60006104d685828601610470565b92505060206104e78582860161049c565b9150509250929050565b600081519050919050565b600082825260208201905092915050565b60005b8381101561052b578082015181840152602081019050610510565b8381111561053a576000848401525b50505050565b6000601f19601f8301169050919050565b600061055c826104f1565b61056681856104fc565b935061057681856020860161050d565b61057f81610540565b840191505092915050565b600060208201905081810360008301526105a48184610551565b905092915050565b6105b581610447565b82525050565b60006020820190506105d060008301846105ac565b92915050565b6000602082840312156105ec576105eb610422565b5b60006105fa84828501610470565b91505092915050565b7f4e6f7420456e6f75676820546f6b656e7320617661696c61626c650000000000600082015250565b6000610639601b836104fc565b915061064482610603565b602082019050919050565b600060208201905081810360008301526106688161062c565b9050919050565b7f4e487b7100000000000000000000000000000000000000000000000000000000600052601160045260246000fd5b60006106a9826103ee565b91506106b4836103ee565b9250828210156106c7576106c661066f565b5b828203905092915050565b60006106dd826103ee565b91506106e8836103ee565b9250827fffffffffffffffffffffffffffffffffffffffffffffffffffffffffffffffff0382111561071d5761071c61066f565b5b828201905092915050565b7f4e487b7100000000000000000000000000000000000000000000000000000000600052602260045260246000fd5b6000600282049050600182168061076f57607f821691505b6020821081141561078357610782610728565b5b5091905056fea2646970667358221220b868b03ca3c7fa01dfed0fc9b7539c838998e7e8d6d332151f854af71a4cf8e464736f6c63430008090033",
  "linkReferences": {},
  "deployedLinkReferences": {}
}